:020000040800F2
:10000000A00400209D010008630F00083D0E0008B9
:10001000610F0008A9020008E311000800000000B9
:10002000000000000000000000000000670F000852
:10003000AB02000800000000650F0008690F00080F
:10004000B7010008B7010008B7010008B7010008B0
:10005000B7010008B7010008AD020008B7010008A9
:10006000B7010008B7010008B7010008B701000890
:10007000B7010008B7010008B7010008B701000880
:10008000B7010008B7010008B7010008B701000870
:10009000B7010008B7010008B7010008B701000860
:1000A000B7010008B7010008B7010008B701000850
:1000B000411000084D100008B7010008B701000802
:1000C000B7010008B7010008B7010008B701000830
:1000D000B7010008B7010008B7010008B701000820
:1000E000B7010008B7010008B7010008B701000810
:1000F000B7010008B7010008B7010008B701000800
:10010000B7010008B7010008B7010008B7010008EF
:10011000B7010008B7010008B7010008B7010008DF
:10012000B7010008B7010008B7010008B7010008CF
:10013000B7010008B7010008B7010008B7010008BF
:10014000B7010008B7010008B7010008B7010008AF
:10015000B7010008B7010008B7010008B70100089F
:10016000B7010008B7010008B7010008B70100088F
:10017000B7010008B7010008B7010008000000003F
:10018000B7010008B7010008DFF80CD000F07AF8DA
:100190000048004723120008A004002006488047BA
:1001A00006480047FEE7FEE7FEE7FEE7FEE7FEE75C
:1001B000FEE7FEE7FEE7FEE7ED0F00088901000815
:1001C0002DE9F05F0546002092469B46884606468C
:1001D000814640241BE0284641464746224600F01F
:1001E00041F853465A46C01A914110D31146184659
:1001F000224600F028F82D1A67EB01084F462246E8
:100200000120002100F01FF817EB00094E41201ECD
:10021000A4F10104DFDC484631462A464346BDE8E6
:10022000F09FD2B201E000F8012B491EFBD27047CB
:100230000022F6E710B513460A4604461946FFF7B2
:10024000F0FF204610BD202A04DB203A00FA02F11C
:10025000002070479140C2F1200320FA03F31943B4
:1002600090407047202A04DB203A21FA02F0002156
:10027000704721FA02F3D040C2F1200291400843B6
:1002800019467047064C074D06E0E06840F0010350
:1002900094E8070098471034AC42F6D3FFF778FF94
:1002A0007812000898120008FEE770472DE9F04127
:1002B00000F028F9124C85B200262680012000F0BB
:1002C0002BF801210F4800F00BF90F4F012815D032
:1002D000A58060880122281A2080D103384600F0CA
:1002E0000BF90A4800F076FC094800224FF48041DF
:1002F00006603846BDE8F04100F0FEB86580F3E7DF
:100300000400002000000240000C02405C000020BD
:100310000000002070470000044910B50A6802423E
:1003200002D00860FFF7F6FF10BD0000143C01404A
:100330002DE9F84FDFF87CB100224FF001084FF0B3
:10034000030A4FF00F090BF1040E00BF0B6808FA07
:1003500002F42340A3426ED14D68022D01D0122D2C
:100360000ED1D50800EB850CDCF820505607F70EAF
:1003700009FA07F6B5430E69BE402E43CCF820605B
:10038000066855000F790AFA05FC07F0030726EA0C
:100390000C06AF40374307604E68012E05D0022E91
:1003A00003D0112E01D0122E0ED18668CF6826EA16
:1003B0000C06AF40374387604668A6430C79C4F308
:1003C0000014944034434460C6688C6826EA0C06E6
:1003D000AC403443C4604C68E40065D5364C2568B5
:1003E00045F480452560246822F0030504F4804428
:1003F0000094324C2E19D6F8084895072F0F09FAA9
:1004000007F5AC432E4DA84201D1002524E02D4D27
:10041000A84201D101251FE02B4DA84201D10225A0
:100420001AE02A4DA84201D1032515E0284DA84223
:1004300002D1042510E037E0264DA84201D1052560
:100440000AE0254DA84201D1062505E0234DA8422A
:1004500001D1072500E00825BD402543C6F808580E
:10046000DBF800405D464E689C43F60300D51C4314
:100470002C60DEF8004075464E689C43B60300D5FC
:100480001C432C600B4D08352C684E689C43F602CB
:1004900000D51C432C60074D0C352C684E689C43DE
:1004A000B60200D51C432C60521C102AFFF44EAF3C
:1004B000BDE8F88F003C0140443802400030014064
:1004C000000002400004024000080240000C02400C
:1004D000001002400014024000180240001C0240BC
:1004E0000069084000D001207047426931EA0202E9
:1004F00000D10904816170470AB181617047090424
:10050000FBE7000001488068704700000C000020F5
:100510000248816802781144816070470C00002015
:100520000B4810B5016841F400710160016841F4A5
:1005300080610160016841F480710160032000F076
:1005400071F8002000F006F800F024F8002010BD3B
:10055000003C024070B50D4D04464FF47A71287886
:10056000B1FBF0F00A490968B1FBF0F000F0C2FA03
:1005700048B9102C07D200222146501E00F032F854
:1005800000206C6070BD012070BD00000C000020D8
:10059000180000200B4882B0016841F480410160DE
:1005A000006800F4804000900648001F016841F098
:1005B00080510160006800F080500090072002B078
:1005C00000F030B844380240002809DB00F01F0278
:1005D000012191404009800000F1E020C0F80011A5
:1005E00070470000F0B40E4B1B680C46C3F30223A7
:1005F000C3F10705042D00D90425191D072901D2CF
:10060000002300E0DB1E012606FA05F1491E214009
:1006100099409E40761E16403143F0BC00F0E2BD8A
:100620000CED00E0064900F0070208684FF6FF03F2
:10063000184040EA0220034A104308607047000057
:100640000CED00E00000FA052DE9F0470E4605002C
:1006500065D0DFF81481D8F80000F7B200F00F0081
:10066000B04207D288F80070D8F8000000F00F0000
:10067000B04254D128683D4C810712D5400703D5BC
:10068000206840F4E05020602878000703D52068F7
:1006900040F4604020602068A96820F0F000084322
:1006A00020602878C0072DD03049686808390128B3
:1006B00012D0022813D0032811D009688907002915
:1006C0002DDA216821F0030101432160FFF71AFFB1
:1006D000814641F2883A0EE009688903EFE709682C
:1006E0008901ECE7FFF70EFFA0EB0901514502D9A4
:1006F0000320BDE8F0872068696800F00C00B0EBCB
:10070000810FEFD1D8F80010404601F00F01B1423F
:1007100007D90770006800F00F00B04201D0012037
:10072000E7E72878400705D52068E96820F4E0501D
:10073000084320602878000706D52068296920F43E
:10074000604040EAC100206000F016F82168084AC5
:10075000C1F30311515CC840064908600020FFF74F
:10076000F9FE0020C5E70000003C024008380240C6
:100770006812000818000020154810B5006810F035
:100780000C02144813D04110042A0FD0082A0ED1AD
:100790000F4C241F2268236802F03F025B0207D53A
:1007A0002068C0F38810A0FB010106E0084610BDD8
:1007B0002168C1F38811A1FB00010023FFF700FDB0
:1007C0002168C1F30141491C4900B0FBF1F010BDA3
:1007D000083802400024F4002DE9F84F050076D0D7
:1007E0002878DFF8F8B2BE4CC00749D0DBF800101B
:1007F0005846C1F38101012908D00068C0F3810087
:1008000002280AD1201D0068400206D52068800316
:1008100036D568680028E2D032E06868B0F5803FDD
:1008200010D0B0F5A02F206810D020F480302060C8
:10083000206820F4802020606868A0B1FFF762FE85
:1008400006460CE0206840F48030F4E740F4802055
:100850002060F7E7FFF756FE801B642873D82068F6
:100860008003F7D50CE0FFF74DFE064605E000BF1C
:10087000FFF748FE801B6428F0D820688003F7D477
:100880002878DFF8608280074FF000093ED5DBF85A
:100890000010584611F00C0F09D00068C0F3810019
:1008A00002280BD18D48001F0068400206D4206842
:1008B000800715D5E868012809D111E0E868B8B1CA
:1008C0000120C8F80000FFF71DFE064605E002E122
:1008D000FFF718FE801B0228C0D820688007F7D5D4
:1008E0002068296920F0F80040EAC10020600DE08E
:1008F000C8F80090FFF706FE064604E0FFF702FE88
:10090000801B02281FD820688007F7D428780007AA
:1009100022D5724E744869696C3671B1012101604B
:10092000FFF7F0FD074604E0FFF7ECFDC01B0228CF
:1009300009D830688007F7D50EE0C0F80090FFF7BF
:10094000E1FD074605E083E0FFF7DCFDC01B022860
:100950007ED830688007F7D42878400768D5DFF85C
:100960007CA100270AF1380ADAF80000C0000BD495
:10097000DAF8001041F08051CAF80010DAF80000EF
:10098000012700F080500090584E3068C00510D408
:10099000306840F480703060FFF7B4FD009005E0EF
:1009A000FFF7B0FD0099401A022851D83068C00501
:1009B000F6D54A4EA868683601280FD00528306859
:1009C00010D020F001003060306820F0040030606A
:1009D000A868B8B1FFF796FD00900FE0306840F0CE
:1009E0000100F4E740F004003060F7E7FFF78AFD0C
:1009F0000099411A41F28830814264D830688007FA
:100A0000F4D50EE0FFF77EFD009007E0FFF77AFDDA
:100A10000099411A41F28830814254D830688007E9
:100A2000F4D42FB1DAF8001021F08051CAF8001088
:100A3000A869C0B3DBF80010C1F3810102294AD0D4
:100A40000228484607D0C8F86000FFF75BFD00E0C9
:100A500039E005463AE04746C8F86000FFF752FD26
:100A6000064604E0FFF74EFD801B02282BD82068C5
:100A70008001F7D4D5E907010843A96A1C4A49084F
:100A800002EB01416A6A41EA8211084395F82C1091
:100A900040EA01611148001F016001203866FFF73C
:100AA00031FD054605E014E0FFF72CFD401B022850
:100AB00009D820688001F7D50BE000BFFFF722FDC1
:100AC000401B022802D90320BDE8F88F206880016E
:100AD000F4D40020F8E70120F6E7000008380240CF
:100AE0000038024000004742800E4742007000403C
:100AF0000000FFFF10B5401EB0F1807F01D3012040
:100B000010BD4FF0E02460610F21601700F06AFB18
:100B10000020A06107202061002010BD70477047B1
:100B200070B590F83C20012A19D0012400F83C4F00
:100B30000222427050F83C3C5A689D6822F07006D0
:100B40000A684968324325F0800529435A6050F805
:100B50003C2C9160447000210170084670BD022059
:100B600070BD10B5040003D094F83D0010B107E04B
:100B7000012010BD002084F83C00204600F00CF855
:100B8000022084F83D00211D206800F091FA012028
:100B900084F83D00002010BD08B501680B48B1F194
:100BA000804F0BD00A4A914207D1016841F00201FF
:100BB0000160006800F00200009008BD016841F08B
:100BC00001010160006800F00100F5E740380240D3
:100BD000000400400168CA6842F00102CA6000686F
:100BE000816801F00701062903D0016841F0010185
:100BF00001600020704770B5044690F83C00012861
:100C000017D0012584F83C50022084F83D0020686C
:100C1000826822F0770222F47F42826008685028BE
:100C200030D00DDC20284DD005DC98B310283BD106
:100C300048E0022070BD302844D0402834D139E04B
:100C4000602828D0702806D0B0F5805F2CD0B0F591
:100C5000005F29D10AE0CB68D1E90121206800F0CA
:100C60008BFA2068816841F0770109E0CB68D1E90F
:100C70000121206800F080FA2068816841F48041F9
:100C8000816011E0CA684968206800F087FA502145
:100C9000206807E016E0CA684968206800F08FFA0B
:100CA0006021206800F072FA84F83D50002084F83A
:100CB0003C0070BDCA684968206800F06FFA4021A6
:100CC0002068EFE7226801461046EBE7704770B5F1
:100CD0000446006801694FF00005C943890715D42F
:100CE000C168C943890711D4E91E01610120207739
:100CF000206880698007204602D0FFF7E7FF04E004
:100D000000F098F8204600F096F8257720680169F1
:100D1000C943490717D4C168C943490713D46FF0C1
:100D200004010161022020772068806910F4407F6F
:100D3000204602D0FFF7CAFF04E000F07BF820460F
:100D400000F079F8257720680169C943090716D4AE
:100D5000C168C943090712D46FF00801016104207A
:100D600020772068C0698007204602D0FFF7AEFFD9
:100D700004E000F05FF8204600F05DF82577206879
:100D80000169C943C90617D4C168C943C90613D448
:100D90006FF010010161082020772068C06910F40D
:100DA000407F204602D0FFF791FF04E000F042F8B8
:100DB000204600F040F8257720680169C943C9073B
:100DC00008D1C168C943C90704D1891E0161204601
:100DD00000F032F820680169C943090609D4C168E6
:100DE000C943090605D46FF0800101612046FFF771
:100DF00095FE20680169C943490609D4C168C94301
:100E0000490605D46FF040010161204600F015F855
:100E100020680169C94389060BD4C168C9438906A2
:100E200007D46FF0200101612046BDE87040FFF754
:100E300076BE70BD7047704770477047FEE7000090
:100E4000F0B587B014216846FFF7F2F91648002480
:100E5000016841F001010160016801F001010591A3
:100E6000016841F0080101600068104F00F00800BF
:100E70004FF470460590224631463846FFF73CFB5A
:100E800001250B480095CDE9010469460948FFF7A3
:100E90004FFA0096CDE90154694638460394FFF7AE
:100EA00047FA07B0F0BD000030380240000C0240A5
:100EB000000031100000024010B586B00024124836
:100EC000009401940294039404944FF0804105949B
:100ED000016048F69F41C0E901144FF4FA71C0E97E
:100EE00003148461FFF73DFE4FF480500090694683
:100EF0000548FFF780FE049404A903480594FFF712
:100F00000FFE06B010BD00001C00002010B586B01A
:100F100000241248009401940294039404940E490E
:100F20000594016048F69F41C0E901144FF4FA713D
:100F3000C0E903148461FFF714FE4FF48050009061
:100F400069460648FFF757FE049404A90348059430
:100F5000FFF7E6FD06B010BD000400405C00002075
:100F6000FEE7704770477047FFF7D2BA30B593B0CD
:100F700030216846FFF75CF914210CA8FFF758F9F7
:100F800018480025016841F080510160006800F0B8
:100F9000805011901448016841F48041016000685C
:100FA000022400F48040119001200390102004904E
:100FB000009406940820CDE907504820CDE90904A3
:100FC00007200B906846FFF707FC0CA90F2081E86B
:100FD0003100E0020F90109002210CA8FFF734FBC3
:100FE00013B030BD40380240007000401048016826
:100FF00041F4700101600F48016841F00101016096
:101000000C4A00210832116002680B4B1A40026042
:10101000031D0A4A1A60026822F480220260054811
:101020000C300160024958068039086070470000A2
:1010300088ED00E000380240FFFFF6FE103000248B
:101040000148FFF744BE00001C0000202DE9F041DC
:101050001348FFF73CFE134D40F6C416DFF84880F6
:101060002888124C4FF48047B04209D820680428E1
:1010700006DA39464046FFF738FA2068401C2060FF
:101080002888B0420AD920680C2807DA012239469C
:101090004046FFF731FA2068401C2060BDE8F0812F
:1010A0005C00002004000020000C02400000002032
:1010B000F0B50268254C264D264E274F274B4FF0A2
:1010C000804CA04209D0604507D0A84205D0B0426C
:1010D00003D0B84201D0984204D122F0700E4A6881
:1010E00042EA0E02A0421BD0604519D0A84217D098
:1010F000B04215D0B84213D0984211D0184DA84232
:101100000ED0184DA8420BD0174DA84208D0174D4D
:10111000A84205D0164DA84202D0164DA84203D1D0
:1011200022F44075CA682A434D6922F080022A439E
:1011300002608A68C2620A688262A04201D0984254
:1011400001D10969016301214161F0BD0000014045
:101150000004004000080040000C00400004014072
:101160000040014000440140004801400018004098
:10117000001C00400020004010B5846842EA0322B1
:1011800024F47F440A432243826010BD826822F027
:1011900070020A4342F007018160704710B5036A8C
:1011A000046A24F001040462846924F0F00444EA2F
:1011B000021423F00A020A438461026210BD10B5D2
:1011C000036A23F0100303628369046A23F4704303
:1011D00043EA023224F0A00343EA01118261016272
:1011E00010BDFEE70907090E002804DB00F1E0202E
:1011F00080F80014704700F00F0000F1E02080F844
:10120000141D704702E008C8121F08C1002AFAD155
:1012100070477047002001E001C1121F002AFBD176
:101220007047FFF77DF9FFF7A1FEFFF709FEFFF713
:1012300043FEFFF76BFE002211461D20FFF7D2F997
:101240001D20FFF7C1F9002211461C20FFF7CAF943
:101250001C20FFF7B9F9002211460620FFF7C2F95A
:101260000620FFF7B1F9FEE70000000000000000D3
:101270000102030406070809981200080000002074
:101280001C00000004120008B41200081C0000201A
:101290008404000014120008000000000000000098
:1012A000000000000100000010000000000000002D
:0412B0000024F40022
:040000050800018965
:00000001FF
