
LD2.elf:     file format elf32-avr

Sections:
Idx Name          Size      VMA       LMA       File off  Algn
  0 .text         00000120  00000000  00000000  00000074  2**1
                  CONTENTS, ALLOC, LOAD, READONLY, CODE
  1 .data         00000000  00800060  00800060  00000194  2**0
                  CONTENTS, ALLOC, LOAD, DATA
  2 .bss          00000001  00800060  00800060  00000194  2**0
                  ALLOC
  3 .comment      00000030  00000000  00000000  00000194  2**0
                  CONTENTS, READONLY
  4 .note.gnu.avr.deviceinfo 0000003c  00000000  00000000  000001c4  2**2
                  CONTENTS, READONLY
  5 .debug_aranges 00000028  00000000  00000000  00000200  2**0
                  CONTENTS, READONLY, DEBUGGING
  6 .debug_info   00000607  00000000  00000000  00000228  2**0
                  CONTENTS, READONLY, DEBUGGING
  7 .debug_abbrev 0000057e  00000000  00000000  0000082f  2**0
                  CONTENTS, READONLY, DEBUGGING
  8 .debug_line   00000263  00000000  00000000  00000dad  2**0
                  CONTENTS, READONLY, DEBUGGING
  9 .debug_frame  00000044  00000000  00000000  00001010  2**2
                  CONTENTS, READONLY, DEBUGGING
 10 .debug_str    000002e5  00000000  00000000  00001054  2**0
                  CONTENTS, READONLY, DEBUGGING
 11 .debug_loc    00000060  00000000  00000000  00001339  2**0
                  CONTENTS, READONLY, DEBUGGING
 12 .debug_ranges 00000018  00000000  00000000  00001399  2**0
                  CONTENTS, READONLY, DEBUGGING

Disassembly of section .text:

00000000 <__vectors>:
   0:	0c 94 2a 00 	jmp	0x54	; 0x54 <__ctors_end>
   4:	0c 94 3c 00 	jmp	0x78	; 0x78 <__bad_interrupt>
   8:	0c 94 3c 00 	jmp	0x78	; 0x78 <__bad_interrupt>
   c:	0c 94 3c 00 	jmp	0x78	; 0x78 <__bad_interrupt>
  10:	0c 94 3c 00 	jmp	0x78	; 0x78 <__bad_interrupt>
  14:	0c 94 3c 00 	jmp	0x78	; 0x78 <__bad_interrupt>
  18:	0c 94 3c 00 	jmp	0x78	; 0x78 <__bad_interrupt>
  1c:	0c 94 3c 00 	jmp	0x78	; 0x78 <__bad_interrupt>
  20:	0c 94 3e 00 	jmp	0x7c	; 0x7c <__vector_8>
  24:	0c 94 3c 00 	jmp	0x78	; 0x78 <__bad_interrupt>
  28:	0c 94 3c 00 	jmp	0x78	; 0x78 <__bad_interrupt>
  2c:	0c 94 3c 00 	jmp	0x78	; 0x78 <__bad_interrupt>
  30:	0c 94 3c 00 	jmp	0x78	; 0x78 <__bad_interrupt>
  34:	0c 94 3c 00 	jmp	0x78	; 0x78 <__bad_interrupt>
  38:	0c 94 3c 00 	jmp	0x78	; 0x78 <__bad_interrupt>
  3c:	0c 94 3c 00 	jmp	0x78	; 0x78 <__bad_interrupt>
  40:	0c 94 3c 00 	jmp	0x78	; 0x78 <__bad_interrupt>
  44:	0c 94 3c 00 	jmp	0x78	; 0x78 <__bad_interrupt>
  48:	0c 94 3c 00 	jmp	0x78	; 0x78 <__bad_interrupt>
  4c:	0c 94 3c 00 	jmp	0x78	; 0x78 <__bad_interrupt>
  50:	0c 94 3c 00 	jmp	0x78	; 0x78 <__bad_interrupt>

00000054 <__ctors_end>:
  54:	11 24       	eor	r1, r1
  56:	1f be       	out	0x3f, r1	; 63
  58:	cf e5       	ldi	r28, 0x5F	; 95
  5a:	d4 e0       	ldi	r29, 0x04	; 4
  5c:	de bf       	out	0x3e, r29	; 62
  5e:	cd bf       	out	0x3d, r28	; 61

00000060 <__do_clear_bss>:
  60:	20 e0       	ldi	r18, 0x00	; 0
  62:	a0 e6       	ldi	r26, 0x60	; 96
  64:	b0 e0       	ldi	r27, 0x00	; 0
  66:	01 c0       	rjmp	.+2      	; 0x6a <.do_clear_bss_start>

00000068 <.do_clear_bss_loop>:
  68:	1d 92       	st	X+, r1

0000006a <.do_clear_bss_start>:
  6a:	a1 36       	cpi	r26, 0x61	; 97
  6c:	b2 07       	cpc	r27, r18
  6e:	e1 f7       	brne	.-8      	; 0x68 <.do_clear_bss_loop>
  70:	0e 94 4f 00 	call	0x9e	; 0x9e <main>
  74:	0c 94 8e 00 	jmp	0x11c	; 0x11c <_exit>

00000078 <__bad_interrupt>:
  78:	0c 94 00 00 	jmp	0	; 0x0 <__vectors>

0000007c <__vector_8>:
		}
	}
}*/
//PAPILDOMA ANTRAS
ISR(TIMER1_OVF_vect)
{
  7c:	1f 92       	push	r1
  7e:	0f 92       	push	r0
  80:	0f b6       	in	r0, 0x3f	; 63
  82:	0f 92       	push	r0
  84:	11 24       	eor	r1, r1
  86:	8f 93       	push	r24
	tot_overflow++;
  88:	80 91 60 00 	lds	r24, 0x0060	; 0x800060 <_edata>
  8c:	8f 5f       	subi	r24, 0xFF	; 255
  8e:	80 93 60 00 	sts	0x0060, r24	; 0x800060 <_edata>
}
  92:	8f 91       	pop	r24
  94:	0f 90       	pop	r0
  96:	0f be       	out	0x3f, r0	; 63
  98:	0f 90       	pop	r0
  9a:	1f 90       	pop	r1
  9c:	18 95       	reti

0000009e <main>:
int main(void)
{
	TCCR1A = (1 << WGM10) | (0 << WGM11) | (1 << COM1A1) | (0 << COM1B1);
  9e:	81 e8       	ldi	r24, 0x81	; 129
  a0:	8f bd       	out	0x2f, r24	; 47
	TCCR1B = (1 << CS12) | (0 << CS11) |(1 << CS10) | (1 << WGM12)| (0 << WGM13);
  a2:	8d e0       	ldi	r24, 0x0D	; 13
  a4:	8e bd       	out	0x2e, r24	; 46
	
	TCNT1 = 0;
  a6:	1d bc       	out	0x2d, r1	; 45
  a8:	1c bc       	out	0x2c, r1	; 44
	TIMSK |= (1 << TOIE1);
  aa:	89 b7       	in	r24, 0x39	; 57
  ac:	84 60       	ori	r24, 0x04	; 4
  ae:	89 bf       	out	0x39, r24	; 57
	DDRC = (1<<6);
  b0:	80 e4       	ldi	r24, 0x40	; 64
  b2:	84 bb       	out	0x14, r24	; 20
	
	tot_overflow = 0;
  b4:	10 92 60 00 	sts	0x0060, r1	; 0x800060 <_edata>
	sei();
  b8:	78 94       	sei
	int i = 0;
  ba:	80 e0       	ldi	r24, 0x00	; 0
  bc:	90 e0       	ldi	r25, 0x00	; 0
		if (i>=4)
			if (tot_overflow>= 183)
			{
				if (TCNT1 >= 27)
				{
					PORTC ^= (1<<6);
  be:	40 e4       	ldi	r20, 0x40	; 64
	sei();
	int i = 0;
	
	while(1)
	{
		if (i<4){	
  c0:	84 30       	cpi	r24, 0x04	; 4
  c2:	91 05       	cpc	r25, r1
  c4:	a4 f4       	brge	.+40     	; 0xee <main+0x50>
			if (tot_overflow>= 122)
  c6:	20 91 60 00 	lds	r18, 0x0060	; 0x800060 <_edata>
  ca:	2a 37       	cpi	r18, 0x7A	; 122
  cc:	c8 f3       	brcs	.-14     	; 0xc0 <main+0x22>
				{
					if (TCNT1 >= 18)
  ce:	2c b5       	in	r18, 0x2c	; 44
  d0:	3d b5       	in	r19, 0x2d	; 45
  d2:	22 31       	cpi	r18, 0x12	; 18
  d4:	31 05       	cpc	r19, r1
  d6:	a0 f3       	brcs	.-24     	; 0xc0 <main+0x22>
					{
						PORTC ^= (1<<6);
  d8:	25 b3       	in	r18, 0x15	; 21
  da:	24 27       	eor	r18, r20
  dc:	25 bb       	out	0x15, r18	; 21
						TCNT1 = 0;
  de:	1d bc       	out	0x2d, r1	; 45
  e0:	1c bc       	out	0x2c, r1	; 44
						tot_overflow = 0;
  e2:	10 92 60 00 	sts	0x0060, r1	; 0x800060 <_edata>
						i++;
  e6:	01 96       	adiw	r24, 0x01	; 1
					}
				}
		}
		if (i>=4)
  e8:	84 30       	cpi	r24, 0x04	; 4
  ea:	91 05       	cpc	r25, r1
  ec:	4c f3       	brlt	.-46     	; 0xc0 <main+0x22>
			if (tot_overflow>= 183)
  ee:	20 91 60 00 	lds	r18, 0x0060	; 0x800060 <_edata>
  f2:	27 3b       	cpi	r18, 0xB7	; 183
  f4:	28 f3       	brcs	.-54     	; 0xc0 <main+0x22>
			{
				if (TCNT1 >= 27)
  f6:	2c b5       	in	r18, 0x2c	; 44
  f8:	3d b5       	in	r19, 0x2d	; 45
  fa:	2b 31       	cpi	r18, 0x1B	; 27
  fc:	31 05       	cpc	r19, r1
  fe:	40 f0       	brcs	.+16     	; 0x110 <main+0x72>
				{
					PORTC ^= (1<<6);
 100:	25 b3       	in	r18, 0x15	; 21
 102:	24 27       	eor	r18, r20
 104:	25 bb       	out	0x15, r18	; 21
					TCNT1 = 0;
 106:	1d bc       	out	0x2d, r1	; 45
 108:	1c bc       	out	0x2c, r1	; 44
					tot_overflow = 0;
 10a:	10 92 60 00 	sts	0x0060, r1	; 0x800060 <_edata>
					i++;
 10e:	01 96       	adiw	r24, 0x01	; 1
				}
				if (i==8){
 110:	88 30       	cpi	r24, 0x08	; 8
 112:	91 05       	cpc	r25, r1
 114:	a9 f6       	brne	.-86     	; 0xc0 <main+0x22>
					i=0;
 116:	80 e0       	ldi	r24, 0x00	; 0
 118:	90 e0       	ldi	r25, 0x00	; 0
 11a:	d2 cf       	rjmp	.-92     	; 0xc0 <main+0x22>

0000011c <_exit>:
 11c:	f8 94       	cli

0000011e <__stop_program>:
 11e:	ff cf       	rjmp	.-2      	; 0x11e <__stop_program>
