S00B00004C44312E7372656358
S11300000C942A000C9434000C9434000C943400A6
S11300100C9434000C9434000C9434000C9434008C
S11300200C9434000C9434000C9434000C9434007C
S11300300C9434000C9434000C9434000C9434006C
S11300400C9434000C9434000C9434000C9434005C
S11300500C94340011241FBECFE5D4E0DEBFCDBF25
S11300600E9436000C9456000C9400001ABA8FEFCC
S113007087BB8BBB80E090E0CA990AC001962FEF42
S113008033E244EF215030404040E1F700C000002B
S1130090CB990AC001972FEF33E244EF215030404F
S11300A04040E1F700C0000088BBE6CFF894FFCFE2
S9030000FC
